:100000000C9452070C9499070C9499070C94990737
:100010000C9499070C9499070C9499070C949907E0
:100020000C9499070C9499070C94C82A0C949A2B59
:100030000C94DD1C0C9499070C9499070C94990767
:100040000C9499070C9499070C9499070C949907B0
:100050000C9499070C94511D0C9499070C949907D2
:100060000C9499070C9499070C9499070C94990790
:100070000C9499070C9499070C9499070C94990780
:100080000C9499070C9499070C9499070C94990770
:100090000C9499070C9499070C9499070C94990760
:1000A0000C9499070C9499070C949907E112E112AA
:1000B0001313131360138013D314D314C2136314D4
:1000C0007414741455155515671567155E15671565
:1000D000671567155515551563156715671563156C
:1000E000072C2E2C202D2E2C202D7A2C9D2C202DD3
:1000F000F32C022D0000E200000000008B00140031
:10010000080017001C0025000C0030003300870099
:10011000520000000000E30000002B001F0021003F
:1001200015000E001800270089002F0000004F0066
:10013000E40000000000000035003A003C003E00F2
:100140004000410043000153450049000000000009
:1001500000000000000004002C00000016000A004F
:1001600005003700310038008A005100000000000F
:100170000000000000001D001B001900110010000D
:1001800036002800650088005000000000000000D4
:10019000E50029003B003D003F00230042004400F1
:1001A00048002A004C000000000000000000E100B0
:1001B00039001E00200022002400120026002E001C
:1001C000130000000000E0000000000000000251E9
:1001D0001A00070006000B000D00090034002D0076
:1001E0000F000000000001000000000001000100FD
:1001F00001000100010060005D00010057000100E6
:1002000001000000000001000000010001000100E9
:1002100001005A005C0001000100580000000100CC
:1002200001000000000000000100010001000100C9
:1002300001000100010001000100010000000000B8
:1002400000000000000001000100000001000100AA
:1002500001006300010054000100010000000000E3
:100260000000000000000100010001000100620028
:100270000100010001000100010000000000000079
:100280000100010001000100010001000100010066
:10029000010001000100000000000000000001005A
:1002A00001000100010001005F005E00610001002B
:1002B000010000000000010000000000000001003B
:1002C0000100010001000100590001005500560025
:1002D0005B000000000000000000000000000000C3
:1002E000000000000000000000000000000000000E
:1002F0004B000000000000000000000000000000B3
:1003000000000000000000000000000000004D00A0
:10031000000000000000000000000000A800B30082
:10032000BD00AA00A7004700000046000000000032
:1003300000000000000000000000000000000000BD
:10034000000000000000000000004E00000000005F
:10035000000000000000000000000000000000009D
:1003600000000000000000004A0000000000000043
:10037000000000000000B200BE000000A900A600BE
:10038000000000009A0000000000000000000000D3
:10039000000000000000000000000000000000005D
:1003A000000000000000000000000000000000004D
:1003B000000000000000000000000000000000003D
:1003C0000000000044454255473A20646973616269
:1003D0006C65642E0A0044454255473A20656E61BB
:1003E000626C65642E0A000A002530313662003ADC
:1003F000200025303258000A722F6320303132330A
:100400003435363738394142434445460A000A00FC
:100410002530325820006B6579626F6172645F72BB
:1004200065706F72743A20000A0025303258006BF4
:100430006579626F6172645F7365745F6C65643A5D
:100440002000290A002575002F002575005D280071
:10045000256400200025640020002564002000257C
:1004600064007C0025303258006D6F7573656B65D4
:1004700079205B62746E7C782079207620685D2814
:100480007265702F61636C293A205B006D6B5F773A
:100490006865656C5F74696D655F746F5F6D6178C9
:1004A000203D2025640A006D6B5F776865656C5F91
:1004B0006D61785F7370656564203D2025640A0076
:1004C0006D6B5F74696D655F746F5F6D6178203D02
:1004D0002025640A006D6B5F6D61785F73706565E0
:1004E00064203D2025640A006D6B5F696E7465723F
:1004F00076616C203D2025640A006D6B5F64656C3D
:100500006179203D2025640A006D6B5F7768656521
:100510006C5F74696D655F746F5F6D6178203D20FD
:1005200025640A006D6B5F776865656C5F6D617847
:100530005F7370656564203D2025640A006D6B5F04
:1005400074696D655F746F5F6D6178203D2025640F
:100550000A006D6B5F6D61785F7370656564203D47
:100560002025640A006D6B5F696E74657276616C3C
:10057000203D2025640A006D6B5F64656C61792005
:100580003D2025640A000A00257500363A20776868
:1005900065656C5F74696D655F746F5F6D61783AF6
:1005A00020000A00257500353A20776865656C5F84
:1005B0006D61785F73706565643A20000A00257587
:1005C00000343A2074696D655F746F5F6D61783ACD
:1005D00020000A00257500333A206D61785F737042
:1005E0006565643A20000A00257500323A20696E7C
:1005F00074657276616C286D73293A20000A0025B3
:100600007500313A2064656C6179282A31306D7348
:10061000293A20000A092D2056616C756573202D3A
:100620000A004D3E004D25643E20003F0073657476
:100630002064656661756C740A00433E200077682B
:100640006572652064656C74613A20637572736FBE
:10065000723D25642C20776865656C3D25640A53DE
:10066000656520687474703A2F2F656E2E77696BFC
:100670006970656469612E6F72672F77696B692F86
:100680004D6F7573655F6B6579730A000A092D20DC
:100690004D6F7573656B6579202D0A4553432F7136
:1006A0003A09717569740A313A0964656C6179288F
:1006B0002A31306D73290A323A09696E746572768F
:1006C000616C286D73290A333A096D61785F737024
:1006D0006565640A343A0974696D655F746F5F6DAE
:1006E00061780A353A09776865656C5F6D61785F96
:1006F00073706565640A363A09776865656C5F747E
:10070000696D655F746F5F6D61780A0A703A097090
:1007100072696E742076616C7565730A643A097348
:1007200065742064656661756C74730A75703A0946
:100730002B310A646F776E3A092D310A7067757034
:100740003A092B31300A7067646F776E3A092D31A0
:10075000300A0A7370656564203D2064656C7461BD
:10076000202A206D61785F7370656564202A2028D7
:10077000726570656174202F2074696D655F746F98
:100780005F6D6178290A003F004D3E2000433E2006
:10079000004C25640A0074696D65725F726561645E
:1007A000333228293A202530346C580A006B657999
:1007B000626F6172645F69646C653A2025580A0053
:1007C0006B6579626F6172645F70726F746F636F73
:1007D0006C3A2025580A00686F73745F6B65796204
:1007E0006F6172645F6C65647328293A2025580A2A
:1007F000000A092D20537461747573202D0A004777
:1008000043433A20342E392E32204156522D4C4942
:1008100042433A20312E382E3073766E20415652A4
:100820005F415243483A20617672350A004F505476
:10083000494F4E533A204C554641204D4F55534554
:100840004B45592045585452414B455920434F4E32
:10085000534F4C4520434F4D4D414E442034303989
:10086000360A004255494C443A2022302E372E3168
:1008700030362D33372D67366535323061222028EA
:1008800030333A32353A3031204D617920203220F0
:1008900032303230290A005649443A2030784645F1
:1008A00045442825594F55525F4E414D4525292035
:1008B0005049443A20307830303030286D696E69C4
:1008C0005F6B6579626F61726429205645523A20E8
:1008D0003078303030310A00444553433A204120CB
:1008E000637573746F6D206B6579626F6172640AF2
:1008F000000A092D2056657273696F6E202D0A005B
:100900000A092D20436F6E736F6C65202D0A4553C5
:10091000432F713A09717569740A6D3A096D6F75E3
:1009200073656B65790A000A092D204D616769635B
:10093000202D0A443A094465627567204D6573733A
:1009400061676520546F67676C650A583A094D61A5
:1009500074726978204465627567204D6F64652004
:10096000546F67676C65202D2053686F77206B6527
:10097000797072657373657320696E206D6174722E
:10098000697820677269640A4B3A094B6579626F2E
:1009900061726420446562756720546F67676C6597
:1009A000202D2053686F77206B65797072657373A3
:1009B000207265706F72740A4D3A094465627567FA
:1009C000204D6F75736520546F67676C650A563AE2
:1009D0000956657273696F6E0A533A0953746174EC
:1009E00075730A433A0941637469766174652043FB
:1009F0006F6E736F6C65204D6F64650A46312D46CE
:100A000031303A0953776974636820746F204C6100
:100A100079657220302D392028463130203D204C18
:100A200030290A302D393A09537769746368207484
:100A30006F204C6179657220302D390A475241563A
:100A4000453A0953776974636820746F204C617963
:100A5000657220302028616C7465726E617465293E
:100A60000A423A094A756D7020746F20426F6F74A4
:100A70006C6F616465720A4553433A094A756D703B
:100A800020746F20426F6F746C6F616465722028F0
:100A9000616C7465726E617465290A453A09507219
:100AA000696E7420454550524F4D205365747469EA
:100AB0006E67730A4253504143453A09436C65617E
:100AC0007220454550524F4D0A000A002575002EF0
:100AD0006E6B726F3A20000A002575002E737761E5
:100AE000705F6261636B736C6173685F6261636B9B
:100AF00073706163653A20000A002575002E7377D4
:100B000061705F67726176655F6573633A20000AA2
:100B1000002575002E6E6F5F6775693A20000A0028
:100B20002575002E737761705F72616C745F7267F8
:100B300075693A20000A002575002E737761705F91
:100B40006C616C745F6C6775693A20000A002575EA
:100B5000002E737761705F7263746C5F7267756982
:100B60003A20000A002575002E737761705F6C6370
:100B7000746C5F6C6775693A20000A002575002E59
:100B8000636170736C6F636B5F746F5F636F6E74C0
:100B9000726F6C3A20000A002575002E7377617021
:100BA0005F636F6E74726F6C5F636170736C6F63A1
:100BB0006B3A20000A0025303258006B65796D6170
:100BC000705F636F6E6669672E7261773A20000A04
:100BD000002575002E6D6F7573653A20000A00259B
:100BE00075002E6B6579626F6172643A20000A00AD
:100BF0002575002E6D61747269783A20000A00250F
:100C000075002E656E61626C653A20000A00253021
:100C100032580064656275675F636F6E6669672E40
:100C20007261773A20000A00257500646566617577
:100C30006C745F6C617965723A20003F000A6D6FD9
:100C40007573653A206F66660A000A6D6F75736585
:100C50003A206F6E0A000A6B6579626F6172643ABE
:100C6000206F66660A000A6B6579626F6172643A8A
:100C7000206F6E0A000A6D61747269783A206F669F
:100C8000660A000A6D61747269783A206F6E0A0014
:100C90000A64656275673A206F66660A000A6465D1
:100CA0006275673A206F6E0A000A0A4A756D7069AC
:100CB0006E6720746F20626F6F746C6F6164657211
:100CC0002E2E2E2000433E2000436C656172696E1B
:100CD0006720454550524F4D0A006565636F6E664B
:100CE00069673A0A005B735D004B6579626F6172F8
:100CF000642073746172742E0A005B575D005B534D
:100D00005D005B525D005B445D005B435D0004037E
:100D1000300000001C036D0069006E0069005F0078
:100D20006B006500790062006F0061007200640072
:100D300000001803250059004F00550052005F00C5
:100D40004E0041004D004500250000000403090449
:100D500009025B00030100A0FA090400000103017D
:100D6000010009211101000122400007058103084B
:100D7000000A09040100010300000009211101001B
:100D8000012285000705820320000A0904020002EF
:100D90000300000009211101000122220007058340
:100DA00003200001070503032000011201100100C8
:100DB000000008EDFE00000100010203010631FF02
:100DC0000974A1010975150026FF00952075088199
:100DD000020976150026FF00952075089102C005CE
:100DE000010902A10185020901A1000509190129D2
:100DF0000515002501950575018102950175038191
:100E0000010501093009311581257F950275088199
:100E10000609381581257F950175088106050C0A9C
:100E200038021581257F950175088106C0C005012E
:100E30000980A10185031A81002A8300160100267A
:100E40000300950175108100C0050C0901A1018501
:100E5000041A01002A9C02160100269C02950175C5
:100E6000108100C005010906A101050719E029E765
:100E7000150025019508750181029501750881010C
:100E80000507190029FF150026FF00950675088142
:100E9000000508190129059505750191029501754F
:100EA000039101C011241FBECFEFDAE0DEBFCDBF3A
:100EB00004B603FE27C080914E0290914F02A0918C
:100EC0005002B09151028730904BA740B04BD1F403
:100ED00010924E0210924F02109250021092510244
:100EE00014BE84B7877F84BF0FB6F894A89580910D
:100EF0006000886180936000109260000FBEE0E0A7
:100F0000F8E3099511E0A0E0B1E0E2EAFBE502C0F8
:100F100005900D92A434B107D9F722E0A4E4B1E022
:100F200001C01D92AE34B207E1F70E94E8270C948D
:100F3000CF2D0C940000FF93EF93E0914401F091CA
:100F40004501309709F00995EF91FF910895FC0153
:100F50008591803011F0EFDFFBCF0895FF27E0E2AD
:100F600030E247FF0CC0419597FF09C0EDE2609564
:100F7000709580959095611D711D811D911D27FFB4
:100F800002C0219530E350E2AA27660F771F881F21
:100F9000991FAA1FA41710F0A41B63955A95A9F7CF
:100FA000AA3008F0A95FA05DAF93F39561157105B4
:100FB0008105910541F7ED3211F4EF93F395F217A6
:100FC00018F43F93F395FBCF8F91B5DFFA95E1F7D6
:100FD0000895E991F9918591803021F0853219F0D9
:100FE000AADFF9CF089520E0E89455915532C1F376
:100FF000503311F4689455915A3348F4505390F398
:10100000220F022E220F220F200D250FF4CF0EF4F7
:10101000219589919991533619F3533729F1533515
:1010200059F1BC0188279927E8945C3621F489910D
:10103000999168945591543639F446EF7EF077FFD4
:101040000DC08FEF9FEF0AC055374AE039F0583591
:1010500040E121F0523642E009F00895FF93EF930A
:101060007DDFEF91FF91B7CFFF93EF93FC0181916B
:101070008030B9F360DFFBCFFF93EF9368DFF1CFF0
:10108000DF93CF93CDB7DEB72596A3DFCF91DF9166
:101090000895209A289A559A5D9A089581FD02C074
:1010A000289A01C0289881E00895CF92DF92EF92AC
:1010B000FF926B017C010E94241B813011F05D9A2C
:1010C00001C05D98C701B601FF90EF90DF90CF900F
:1010D000089581E0089581E008950C946B081F93B2
:1010E000CF93DF9300D000D01F92CDB7DEB74983F6
:1010F0005A832091840189819A81211112C066232B
:1011000049F00E94FC19182F682F89819A810E944A
:10111000A11903C00E94D019182F69817A81812FEB
:1011200004C00E94FC1969817A810F900F900F9082
:101130000F900F90DF91CF911F910C945409FC01F7
:10114000408151816281738184810C946F080E9477
:10115000A41B811102C00E94441C0C94DF0B0C9450
:10116000E20B08950C94B1080C944E08CF93C82F4D
:101170000E94B2088C2F0E94B408CF910895089560
:101180000E9445150E94BF082FEF84E39CE0215088
:1011900080409040E1F700C0000087E797E7909318
:1011A0000108809300080C94771D0F931F93CF9331
:1011B000DF938C010E949F08EC01B8010E946D082A
:1011C000882309F46AC0B801CE010E94BE0D8823AD
:1011D00009F463C0B801CE010E94FF0D882309F411
:1011E0005CC0F8018281882339F1C1308CE5D807D1
:1011F00059F0CE3DECE5DE07E1F0C115FCE5DF0777
:10120000D9F40E94C00849C080911D02C82FC09522
:10121000C170C0FB80F980931D02CC2329F086EDBC
:1012200093E00E94A70739C084EC93E00E94A707CF
:1012300035C00E94441C31C0C631DC4539F50E94DE
:101240007C1A282FF8018281409100015091010100
:10125000882379F02A7A91E009F490E0909346018E
:10126000911102C069E201C065E3CA010E947D1CC0
:101270000AC080914601811102C069E201C065E3A4
:10128000CA010E947F1C0E94BB1A07C0C801DF91DF
:10129000CF911F910F910C946908C0E08C2FDF91C2
:1012A000CF911F910F9108959FE0799FF001112434
:1012B00098E7899FE00DF11D1124E60FF11DEE0F57
:1012C000FF1FEC50FF4F859194910895CF93DF93CA
:1012D0000E9454090E94080BEC01811521E5920738
:1012E000C8F5811560E5960708F0E1C0883E9105D4
:1012F000D0F4803E910508F087C1883A910570F4DA
:10130000853A910508F069C08130910509F47CC1E6
:1013100008F42DC1049708F077C129C18F3B9105CE
:1013200008F466C024C1C11580E2D80758F4C1157D
:1013300091E0D90708F068C1C03FD10508F417C192
:10134000D06562C1C11520E4D20708F410C1DF7076
:10135000D06A5AC1811565E59607A0F4C11584E5E8
:10136000D80708F0EBC0C11593E5D90708F0D0C045
:10137000C11522E5D20708F0B5C0DC2FCC27C16F1C
:10138000D06A42C1811569E59607A0F4C11588E5C8
:10139000D80708F0D8C0C11596E5D90708F0E7C00E
:1013A0008C2F0E949C0B8F71C82FD0E0DC2FCC2794
:1013B000D0622AC181152AE5920708F4C9C0905667
:1013C0008115904208F0D3C08D2F8F710E949C0B25
:1013D000DD27D0628F71D82B17C1853A910509F4AA
:1013E000C9C0863A910509F0C8C0C2E8D0E40CC172
:1013F000883A910509F4C4C0893A910509F4C3C03B
:101400008A3A910509F4C2C08B3A910509F4C1C02A
:101410008C3A910509F4C0C08B3B910509F4BFC01B
:101420008C3B910509F4BEC08D3A910509F4BDC00D
:10143000803B910509F4BCC08E3A910509F4BBC00C
:101440008F3A910509F4BAC0813B910509F4B9C0FE
:10145000823B910509F4B8C0833B910509F4B7C0FC
:10146000843B910509F4B6C0853B910509F4B5C0EC
:10147000863B910509F4B4C0873B910509F4B3C0DC
:10148000883B910509F4B2C0893B910509F4B1C0CC
:101490008D3B910509F4B0C08E3B910509F4AFC0B6
:1014A0008A3B910509F4AEC0C0E0D4E4ADC08370BE
:1014B00021E030E002C0220F331F8A95E2F73C683A
:1014C000CE0174E0969587957A95E1F78370382B75
:1014D000CF70C695C69580E2C89FE0011124C22B4B
:1014E000D32B92C04C2F4695469590E2499FA00180
:1014F0001124C370DD2721E030E0C90102C0880F4C
:10150000991FCA95E2F7EC01C42BD52BDC687CC08F
:101510004C2F4695469580E2489FA0011124C37048
:10152000DD2721E030E0C90102C0880F991FCA956C
:10153000E2F7EC01C42BD52BDA6866C0DC2FCC2790
:10154000C46FD06A61C0DC2FCC27C06FD06A5CC08A
:101550008F700E949C0B94E0D695C7959A95E1F701
:10156000CF70D0E0DC2FCC27D069C82B4DC0C0E0B5
:10157000D0E04AC0C1E8D0E447C0C3E8D0E444C0EA
:10158000C2EED4E441C0C9EED4E43EC0CAEED4E415
:101590003BC0C5EBD4E438C0C6EBD4E435C0C3EBE4
:1015A000D4E432C0C4EBD4E42FC0C7EBD4E42CC0E5
:1015B000CCECD4E429C0CDECD4E426C0C3E8D5E417
:1015C00023C0CAE8D5E420C0C2E9D5E41DC0C4E9FF
:1015D000D5E41AC0C1E2D6E417C0C3E2D6E414C011
:1015E000C4E2D6E411C0C5E2D6E40EC0C6E2D6E439
:1015F0000BC0C7E2D6E408C0CFE6D4E405C0C0E71C
:10160000D4E402C0CAE2D6E4CE01DF91CF910895BE
:101610008238910569F1B0F48133910509F46DC008
:1016200048F48932910509F463C08A32910509F4BE
:1016300069C008958533910509F455C08933910532
:10164000B9F00895833E910569F138F4803E910523
:10165000B1F0823E910509F10895863E9105A9F108
:10166000873E9105B9F1843E910509F064C023C01D
:1016700020913F0220FD4FC021FD4DC00895809173
:101680003F0280FD44C08091400280FF44C08091B1
:101690003F0284FD42C083EE4DC080913F0282FF35
:1016A00038C0F5CF80913F0282FD33C08091400267
:1016B00080FD31C0ECCF8091400281FF32C080912B
:1016C0003F0284FD2AC087EE35C080913F0283FF30
:1016D00026C0F5CF80913F0283FD21C0809140025A
:1016E00081FD1FC0ECCF80913F0285FD1CC01DC055
:1016F00080913F0285FD19C016C080913F0286FD92
:1017000016C017C080913F0286FD13C010C089E348
:1017100011C082EE0FC080EE0DC080E00BC086EEDF
:1017200009C084EE07C089E205C085E303C08AE2F0
:1017300001C081E390E0089590913F0292FF0DC0B7
:10174000282F2871283019F4877F846006C0282F3D
:101750002471243011F48B7F886093FF0DC0282FF3
:101760002871283119F4877E846106C0282F2471DE
:10177000243111F48B7E88612091400220FF0DC03E
:10178000382F3871383019F4877F816006C0382FC0
:101790003171313011F48E7F886021FF0DC0282F08
:1017A0002871283119F4877E816106C0282F2171A4
:1017B000213111F48E7E886194FD877E08950C940A
:1017C000490808950C94E10BE82FF0E0EE0FFF1F9D
:1017D000E95BFE4F808191810895CF92DF92EF9275
:1017E000FF920F931F93CF93DF9387EF93E00E94B5
:1017F000A70787E4E82E81E0F82EC0E0D0E092EF62
:10180000C92E93E0D92E09EE13E0DF93CF93DF9238
:10181000CF920E9440088FEE93E00E94A707F70145
:10182000819191917F010E948A1B9F938F931F93B7
:101830000F930E94400887EE93E00E94A70721962D
:101840008DB79EB708960FB6F8949EBF0FBE8DBF9A
:10185000C830D105D1F6DF91CF911F910F91FF9044
:10186000EF90DF90CF900895A2E2B1E041E050E028
:1018700028E02A0F8D91E82FE295EF70F0E031A17A
:101880008F70BA0102C0660F771F8A95E2F7CB010D
:10189000962F9095932391A392A1892B82A32A132B
:1018A000E9CFA3E1B1E041E050E02FE02A0F8D91B4
:1018B000E82FE295EF70F0E031A18F70BA0102C01D
:1018C000660F771F8A95E2F7CB01962F90959323A9
:1018D00091A392A1892B82A32A13E9CFE7E5F1E036
:1018E000A7E4B1E0119211921D921D9271E0E736CA
:1018F000F707C1F788E00E94160D0C94A7085F92C5
:101900006F927F928F929F92AF92BF92CF92DF920F
:10191000EF92FF920F931F93CF93DF9302E211E0B8
:10192000A7E5B1E0612CEE24E394F12C5D018D90EC
:101930009C90119711961C921E92E80189918E013C
:10194000E82FE295EF70F0E091A18F70A70101C040
:10195000440F8A95EAF7892F842B81A382A1542E04
:101960005094852182A3D0EADA95F1F783E1C82E5D
:1019700081E0D82E80E090E0E60179906E01272D7D
:1019800022952F7030E0E90168A12D913C911197CB
:1019900070E0D72DDF7002C075956795DA95E2F794
:1019A00060FD08C0B701082E02C0660F771F0A94B9
:1019B000E2F702C060E070E0262B372B11963C93D3
:1019C0002E9301968F309105B9F681A1D52DD8239C
:1019D000D1A382A1482B42A3129681E0F501208178
:1019E00031818216930609F480E0682AF1E0A73677
:1019F000BF0709F09BCF262D48E067E471E087E53B
:101A000091E00E94170D0E94AF08862DDF91CF91C3
:101A10001F910F91FF90EF90DF90CF90BF90AF900C
:101A20009F908F907F906F905F9008950895FF92A0
:101A30000F931F93CF93DF93F82E092F162FD72FD5
:101A4000C42F222349F081E0809369010E940F1D79
:101A50009093680180936701809169018823D9F090
:101A600080916701909168010E94271D069798F068
:101A7000EF2DF02FA12FBD2F80E090E04C2F50E0F4
:101A80008417950734F4219131912D933D9301965C
:101A9000F7CF10926901DF91CF911F910F91FF90C5
:101AA00008950F931F93CF93DF93C62FD42F022F48
:101AB000FC0182818823C9F060936C010E940F1D94
:101AC00090936B0180936A0180E28C0F883008F05C
:101AD00050C0C77081E001C0880FCA95EAF7DF9156
:101AE000CF911F910F910C949C1210916C011613C1
:101AF00030C080916A0190916B010E94271D883C43
:101B0000910538F5C0E2CD0F1D17B9F080E2810FC5
:101B1000883040F4177081E001C0880F1A95EAF709
:101B20000E94A312C83048F481E09D2F977001C035
:101B3000880F9A95EAF70E949C12802F0E948912C2
:101B4000C830B8F4D77081E001C0880FDA95EAF7A1
:101B50000AC080E28C0F883060F4C77081E001C059
:101B6000880FCA95EAF7DF91CF911F910F910C94DE
:101B7000A312DF91CF911F910F9108959C01CB018A
:101B8000233F4CE53407F9F078F4283DFCE53F07A6
:101B9000B9F0293D4CE5340711F1273D3C4531F5BD
:101BA00026E241EE61EE1EC0253FFCE53F0799F0BD
:101BB00070F0263F3C45D1F427E245EE66EE12C0B8
:101BC00027E245EE0EC026E241EE60EE0BC027E2B2
:101BD00045EE64EE07C026E241EE62EE03C028E265
:101BE00041E065EE0E94510D80E00895FC01828184
:101BF000882319F010926C01089581E00895CF9325
:101C0000DF93EC01FB018281882309F41FC1C230FC
:101C1000FCE5DF0708F41BC1C6319CE5D90738F0A5
:101C20009E012A5F3C452930310508F010C10E9411
:101C3000B71B9093400280933F02C031ECE5DE0772
:101C400009F4C3C008F041C0C8308CE5D80709F4D6
:101C50009AC0F0F4C430ECE5DE0709F487C068F4FC
:101C6000C2308CE5D80709F477C0C330DC4509F0F1
:101C7000E3C080913F02826076C0C630ECE5DE07AB
:101C800009F46EC008F07BC080913F0288606BC091
:101C9000CC308CE5D80709F485C068F4CA30ECE58F
:101CA000DE0709F474C008F079C00E9445158091E0
:101CB0003F02806858C0CE308CE5D80709F476C062
:101CC00008F07FC080913F028BC0CB3FECE5DE0780
:101CD00009F44FC018F5C3318CE5D80709F47DC06D
:101CE00078F4C131ECE5DE0709F473C0C231DC459C
:101CF00009F0A2C00E94451580913F028F7733C042
:101D0000C5318CE5D80709F472C008F486C0CA3F13
:101D1000DC4509F091C0809140023EC0CF3FFCE518
:101D2000DF0709F45FC058F4CD3F9CE5D90709F4FB
:101D300044C008F43FC08091400282602DC0C13091
:101D4000FDE5DF0709F475C008F45DC0C230DD456C
:101D500009F072C080E06EC080913F02816003C0D4
:101D600080913F02806180933F0266C080913F0274
:101D700011C0809140028260809340025DC08091DA
:101D80003F028062F0CF80913F028064ECCF80916F
:101D90003F0288608460E7CF8160EECF80913F0290
:101DA0008E7FE1CF80913F028D7FDDCF80913F021A
:101DB000877FD9CF8091400218C0809140028D7FEB
:101DC000DBCF80913F028F7ECECF80913F028F7D0F
:101DD000CACF80913F028F7BC6CF80913F02877F21
:101DE0008B7FC1CF809140028D7F8E7FC5CF809148
:101DF0003F0282FB222720F991E0922790FB82F993
:101E000090FB83F9B0CF80914002982F909591700C
:101E10008E7F892B90FB81F9AFCF0E944515809171
:101E20003F0287FB222720F991E0922790FB87F958
:101E30009ACF81E00E94461C80913F02909140021F
:101E40000E94C81B0E94451580E001C081E0DF911F
:101E5000CF91089590937201809371010895E0915C
:101E60007101F0917201309721F00190F081E02D25
:101E7000099480E00895EF92FF920F931F93CF9300
:101E8000DF93E0917101F09172013097B1F18C0113
:101E90000280F381E02D099580911D0282FF2DC003
:101EA00080FF04C086E194E00E94A707E80118E0E3
:101EB00080E1E82E84E0F82E80911D0280FF0BC0A7
:101EC00088811F928F93FF92EF920E9440080F909B
:101ED0000F900F900F90115021961111EDCF80911E
:101EE0001D0280FF0AC08EE094E0DF91CF911F9128
:101EF0000F91FF90EF900C94A707DF91CF911F9166
:101F00000F91FF90EF900895E0917101F0917201AF
:101F1000309739F022E0DC012C930480F581E02D2C
:101F20000994089520916F013091700182179307F1
:101F300071F09093700180936F01E0917101F091C5
:101F40007201309721F00680F781E02D0994089501
:101F500020916D0130916E018217930771F090937B
:101F60006E0180936D01E0917101F09172013097E3
:101F700021F00084F185E02D0994089585B78068EB
:101F800085BF85B7806885BF0895089508950C942E
:101F9000C60F08950C94C90F0E94BE0F0E94C50F72
:101FA0000C94C70F81E008950E94061D0E94340C16
:101FB0000E94881D0C94CA0FCF93C82F80911D02D8
:101FC00082FF1EC080FF04C08FE294E00E94A7073A
:101FD00080911D0280FF0CC01F92CF938AE294E093
:101FE0009F938F930E9440080F900F900F900F9037
:101FF00080911D0280FF04C088E294E00E94A70740
:102000008C2FCF910C94B6087F928F929F92AF92B3
:10201000BF92CF92DF92EF92FF920F931F93CF93D5
:10202000DF93CDB7DEB72A970FB6F894DEBF0FBEA9
:10203000CDBF0E947F0C0E94D20F811111C08FEF83
:1020400089838A831B820E940F1D8160782F9D8364
:102050008C8349815A816B818D810E94B4104FC05D
:1020600034E7832E31E0932E00E010E0702E802FB5
:102070000E94E40B6C01F401A190B1904F01A826DD
:10208000B926A114B10431F40F5F1F4F08301105B8
:1020900069F7D5CF80911D0281FD0E94ED0B90E084
:1020A000EE24E394F12C97012A213B21232B09F103
:1020B0009E837F82CE20DF2091E0CD2809F490E03E
:1020C00098870E940F1D8160782F9A8789874E819B
:1020D0005F8168858A850E94B410000F111FF80186
:1020E000EC58FE4F80819181E826F926F182E0824A
:1020F00006C09F5FEE0CFF1C9F30A9F6C5CF0E9463
:102100009C1F109173010E942F0F1817C9F00E9495
:102110002F0F809373012A960FB6F894DEBF0FBE7F
:10212000CDBFDF91CF911F910F91FF90EF90DF9086
:10213000CF90BF90AF909F908F907F900C94DC0FCA
:102140002A960FB6F894DEBF0FBECDBFDF91CF91B8
:102150001F910F91FF90EF90DF90CF90BF90AF90C5
:102160009F908F907F900895CF93DF93CDB7DEB788
:102170002B970FB6F894DEBF0FBECDBF4F835887A5
:1021800069877A878B87DE01119686E0FD011192BF
:102190008A95E9F785E0FE01379601900D928A95C0
:1021A000E1F749815A816B817C818D819E810E94FA
:1021B000EF172B960FB6F894DEBF0FBECDBFDF91A1
:1021C000CF910895FC01808191810E943D1A08956C
:1021D000CF93DF931F92CDB7DEB7882309F42DC1CB
:1021E000682F8238C1F40E942F0F81FD26C169E358
:1021F00080910001909101010E947D1C0E94BB1AF8
:102200002FEF81EE94E0215080409040E1F700C034
:10221000000069E319C0833811F50E942F0F80FD7B
:102220000CC163E580910001909101010E947D1C29
:102230000E94BB1A2FEF81EE94E021508040904025
:10224000E1F700C0000063E5809100019091010179
:102250000E947F1C0F90DF91CF910C94BB1A8438A1
:10226000C1F40E942F0F82FDE8C067E48091000155
:10227000909101010E947D1C0E94BB1A2FEF81EEFC
:1022800094E0215080409040E1F700C0000067E4F6
:10229000DBCF8CEF860F813A70F4862F69830E9422
:1022A000332469818111C9C080910001909101019D
:1022B0000E947D1CCFCF80E2860F883048F4677083
:1022C00081E001C0880F6A95EAF70E947F1AC2CFA9
:1022D0008BE5860F833088F4653A29F0663A31F051
:1022E00083E890E005C081E890E002C082E890E0D9
:1022F0000F90DF91CF910C94920F88E5860F873174
:1023000008F091C0683A09F445C0693A09F445C03B
:102310006A3A09F445C06B3A09F445C06C3A09F4CD
:1023200045C06B3B09F445C06C3B09F445C06D3AB0
:1023300009F445C0603B09F445C06E3A09F445C054
:102340006F3A09F445C0613B09F445C0623B09F4AA
:1023500045C0633B09F445C0643B09F445C0653B97
:1023600009F445C0663B09F445C0673B09F445C024
:10237000683B09F445C0693B09F445C06D3B09F46D
:1023800045C06E3B09F445C06A3B09F445C080E096
:1023900090E044C082EE90E041C089EE90E03EC003
:1023A0008AEE90E03BC085EB90E038C086EB90E091
:1023B00035C083EB90E032C084EB90E02FC087EB18
:1023C00090E02CC08CEC90E029C08DEC90E026C011
:1023D00083E891E023C08AE891E020C082E991E09F
:1023E0001DC084E991E01AC081E292E017C083E247
:1023F00092E014C084E292E011C085E292E00EC047
:1024000086E292E00BC087E292E008C08FE690E09F
:1024100005C080E790E002C08AE292E00F90DF9171
:10242000CF910C94A80F603F40F0862F0E94221E8F
:102430000F90DF91CF910C940F1F0F90DF91CF91F0
:102440000895882309F464C0823879F40E942F0F1C
:1024500081FF5EC069E380910001909101010E94BB
:102460007D1C0E94BB1A69E310C08338B1F40E943E
:102470002F0F80FF4DC063E5809100019091010115
:102480000E947D1C0E94BB1A63E58091000190911F
:1024900001010E947F1C0C94BB1A843879F40E94BD
:1024A0002F0F82FF35C067E48091000190910101F8
:1024B0000E947D1C0E94BB1A67E4E7CF9CEF980F37
:1024C000913A10F4682FE1CF90E2980F983050F4D1
:1024D000877091E001C0990F8A95EAF7892F0E94D1
:1024E000851AD9CF9BE5980F933020F480E090E0D7
:1024F0000C94920F98E5980F973120F480E090E0CB
:102500000C94A80F803F20F00E948A1E0C940F1F8D
:102510000895CF93C82F0E94E810C93349F42FEFD4
:1025200087EE93E0215080409040E1F700C000002A
:102530008C2FCF910C942112882321F00E947F1AB6
:102540000C94BB1A0895882321F00E94851A0C94DC
:10255000BB1A0895BF92CF92DF92EF92FF920F9332
:102560001F93CF93DF937C01062FC72FFC011581AA
:1025700012951F70D281D1110E949C1A0E94751A67
:10258000882379F0DD2369F080E2800F883048F0FD
:1025900082E00E94061B0E94751A91E0B82EB926AF
:1025A00001C0B12CCC2EC2948FE0C822D12CFCE00B
:1025B000CF16D10408F0F7C1F601EA5AFF4F0C9488
:1025C000732D8C2F807FCF70882311F0C295C07F30
:1025D000DD2399F0CC2309F4D2C180E2800F88304A
:1025E00010F0011104C08C2F0E947F1A03C08C2FA1
:1025F0000E948F1A0E94BB1AC2C1802F0E94211212
:10260000CC2309F4D0C180E2800F883010F0011192
:1026100004C08C2F0E94851A03C08C2F0E94951A2B
:102620000E94BB1AC0C18C2F807FCF70803211F006
:10263000C295C07F002319F00130C9F022C0DD230C
:1026400071F0112341F0113031F40E94A21A8C2B49
:102650000E94A81AA8C10E94A21A8C2B1DC0112387
:1026600019F0113009F49FC10E94B11A25C0DD2371
:1026700021F0163008F097C10EC0153008F093C154
:102680001BC0DD2361F0112331F0F701858180FF4C
:1026900076C18F7085838C2F0E949C1284C1112378
:1026A00059F0093309F07CC1FFEF17EE23E0F15038
:1026B00010402040E1F772C18C2F0E94A31273C119
:1026C0008C2F86958695837090E0009719F001977E
:1026D00061F069C1DD2321F0802F9C2F937002C02F
:1026E00080E090E00E94920F69C1DD2321F0802FED
:1026F0009C2F937002C080E090E00E94A80F5EC102
:10270000DD23F9F0053F51F0063F71F0043FA9F4D5
:102710008091390290913A0281600BC08091390218
:1027200090913A02826005C08091390290913A02FC
:10273000846090933A0280933902802F0E94221E77
:102740001EC0053F51F0063F71F0043FA9F480918F
:10275000390290913A028E7F0BC08091390290919C
:102760003A028D7F05C08091390290913A028B7FA9
:1027700090933A0280933902802F0E948A1E0E9411
:102780000F1F1CC18C2F837009F04BC0D11112C1D7
:10279000202F229526952770220F220F602F6F7011
:1027A000862F90E0A0E0B0E0022E04C0880F991FB1
:1027B000AA1FBB1F0A94D2F704FF10C04FE050E0DD
:1027C00060E070E004C0440F551F661F771F2A9514
:1027D000D2F7409550956095709503C040E050E069
:1027E000BA01C695C695C370D0E08A019B01082B3B
:1027F000192B2A2B3B2BC901B801C230D10559F046
:10280000C330D10559F0219719F00E94B718D2C0F2
:102810000E94A518CFC00E94C918CCC00E94A3185E
:10282000C9C0DD2319F08C2F817001C086958823E3
:1028300009F4C0C0202F229526952770220F220F61
:10284000602F6F70862F90E0A0E0B0E0022E04C0F1
:10285000880F991FAA1FBB1F0A94D2F704FF10C04C
:102860004FE050E060E070E004C0440F551F661F69
:10287000771F2A95D2F7409550956095709503C0C3
:1028800040E050E0BA01C695C695C370D0E08A0119
:102890009B01082B192B2A2B3B2BC901B801C230F5
:1028A000D10559F0C330D10559F0219719F00E9494
:1028B0007C1980C00E946A197DC00E948E197AC05E
:1028C0000E94DD1877C0CF70DD2339F08C2F0E9475
:1028D0000319802F0E949C126DC0802F0E94A312AA
:1028E0008C2F0E94241966C0023F01F128F4003F9A
:1028F00041F0013FA1F03FC0033FF9F0043F39F13F
:102900003AC0DD2341F0153008F04DC08C2F8F7197
:102910000E94491948C0163008F045C0F7CFDD23A2
:1029200039F08C2F8F710E9403193DC0DD23C9F34C
:102930008C2F8F710E94241936C0DD2329F08C2F33
:102940008F710E94EE182FC00E94E9182CC0DD2361
:1029500049F0CF718C2F0E94031963E08C2F0E94E5
:10296000F11A21C081E00E94061B1230E0F082E0E3
:102970000E94061B18C0DD2331F0112391F2802F35
:102980000E94E81010C0112399F2093349F41FEF97
:1029900027EE33E0115020403040E1F700C0000046
:1029A000802F0E94211288E0C81AD10894E0C9162D
:1029B000D10420F40E942F0F0E94B608BB20D1F052
:1029C0000E94711A80FD16C0F70112820E946B1AD4
:1029D0000E940319C7010E9404150E946B1ADF911F
:1029E000CF911F910F91FF90EF90DF90CF90BF900C
:1029F0000C942419DF91CF911F910F91FF90EF90CC
:102A0000DF90CF90BF9008950F931F93CF93DF93E4
:102A1000EC01888199812B813C81232BB9F09F3F68
:102A200011F48F3F99F0CE010E94D508882371F0F0
:102A3000688179818A810E94481A8C010E94A019BC
:102A40000E94A218B801CE010E94AA12DF91CF9174
:102A50001F910F9108950E949C1A0E949F1A0E9434
:102A6000BB1A0E9437200E940F1F80E090E00E9456
:102A7000920F80E090E00C94A80F8091000190915B
:102A800001010E94811C0C942B150E948C1A0C943D
:102A90003D15E92FE295EF70F0E03297EE30F10549
:102AA000B0F4EE59FF4F0C94732D803F91F018F461
:102AB000883E68F40EC0843F51F40BC0883E48F055
:102AC000813F29F406C093FB882780F9089580E0B0
:102AD000089581E008950E943D1A0E9449150895C5
:102AE000CF93DF9300D000D01F92CDB7DEB70F9009
:102AF0000F900F900F900F90DF91CF910895CF938B
:102B0000DF9300D000D000D0CDB7DEB726960FB649
:102B1000F894DEBF0FBECDBFDF91CF9108951F9314
:102B2000CF93DF93C091850116E080918601C8178D
:102B300099F0D0E01C9FF0011D9FF00D1124E95782
:102B4000FE4F4081518162817381848195810E9411
:102B50007F152196C770E9CFDF91CF911F9108951E
:102B60004091B7015091B8016091B9017091BA01DB
:102B70008091BB019091BC010C947F158091BC01A8
:102B800082958F7009F054C08091B901882309F4AF
:102B90004FC080918501A09186016091B70170912D
:102BA000B8014091BA015091BB01B6E08A1709F40F
:102BB0003FC090E041155105C1F17F3F11F46F3FD7
:102BC000A1F1B89FF001B99FF00D1124E957FE4F14
:102BD000218172132AC02081621327C02281211112
:102BE00024C0238134812417350710F42150310982
:102BF000241B350B283C3105C0F42091BC012F70FB
:102C000020612093BC0126E0289FF001299FF00D50
:102C10001124E457FE4F80818F708061808387EBA1
:102C200091E00E9404150C948F1501968770BECF19
:102C30000895CF92DF92EF92FF920F931F93CF935D
:102C4000DF93CDB7DEB762970FB6F894DEBF0FBE45
:102C5000CDBF8C0185E0F801DE011D9601900D923B
:102C60008A95E1F7D8014C9111965C9111971296D3
:102C70006C9112971396CD90DC9014973091B70118
:102C80007091B8018091BA019091BB01009709F44D
:102C90006BC17F3F19F43F3F09F466C1E090B90171
:102CA000EE2009F4C0C02091BC01C816D90628F056
:102CB000F601E81BF90BCF0104C0809590958C0DAF
:102CC0009D1DFF24F394883C910578F0F12C207F22
:102CD00009F0C6C07C2DD98AC88A89890E947015DE
:102CE00087EB91E00E940415B1C0822F807F09F02C
:102CF00046C0751314C0341312C0611110C02F7078
:102D000020612093BC010E94B01587EB91E00E94E6
:102D100004158091BC01D80115968C932EC0CD2846
:102D200019F15F3F11F44F3FF9F0F62E61111CC00D
:102D3000809185012091860136E0821709F45AC0FE
:102D400090E0389FF001399FF00D1124E957FE4FB4
:102D50007181571306C07081471303C072817111CE
:102D600003C001968770E9CFF62E662309F427C1C8
:102D70008091BC0181608093BC01F12C20C175134E
:102D800008C0341306C0611104C08091BC01D80191
:102D9000C3C04D875E878D859E856A8B0E946B15AB
:102DA0006A898823E1F16623D1F12091BC01822F49
:102DB00082958F7090E0029774F08091B7019091A6
:102DC000B80198878F831986DB86CA862C87CE0147
:102DD00007960E94041586E0F801A7EBB1E0019088
:102DE0000D928A95E1F70E94BE150E94B015FF244E
:102DF000F394E5C04D875E878D859E850E943D1AC0
:102E0000292F22952F7030E0223031050CF0CBC0F5
:102E10009F7009F0C5C0805E883008F4D0C0C8013A
:102E20000E940415E4CFC816D90608F453C0F60171
:102E3000E81BF90BCF01883C910508F450C0F12C38
:102E40007C2DD98AC88A89890E947015E7EBF1E048
:102E500086E0DF011D928A95E9F70E94B015AFC0A8
:102E6000751314C0341312C0611110C08091BC01DD
:102E7000F8018583C8010E94041586E0E7EBF1E0C4
:102E8000DF011D928A95E9F7FE2C99C04D875E8778
:102E90008D859E856A8B0E946B156A89882309F44B
:102EA000BECF662309F4BBCF2091BC01822F82954F
:102EB0008F7090E002970CF48ECF8091B7019091C3
:102EC000B8019A8389831B82DD82CC822E83CE0156
:102ED00001967FCF809590958C0D9D1DACCFF62EE1
:102EE000662309F49CCF75132EC034132CC0209197
:102EF000BC0120FD1FC0822F82958F70D9F0D801B0
:102F000015962C9315978F3049F08F5F982F9295D7
:102F1000907F822F8F70892B15968C93C8010E9409
:102F2000041586E0F801A7EBB1E001900D928A95B7
:102F3000E1F793CF86E0F801A7EBB1E001900D92A5
:102F40008A95E1F73CC04D875E878D859E850E94FE
:102F50006B15811140CF8091BC0181608093BC01D1
:102F6000C8010E9404152BC0662309F458CF4D8771
:102F70005E878D859E850E946B15F82E882309F447
:102F80004ECF86E0F801A7EBB1E001900D928A9553
:102F9000E1F787EB91E00E94E2100E94BE155DCF41
:102FA000811139CF0CC0243031050CF038CF9F701F
:102FB00009F431CFF8019581907F09F02CCF8F2D46
:102FC00062960FB6F894DEBF0FBECDBFDF91CF91F2
:102FD0001F910F91FF90EF90DF90CF9008951F9376
:102FE000CF93DF93CDB7DEB72C970FB6F894DEBF43
:102FF0000FBECDBF4F83588769877A878B879C87A1
:10300000CE0107960E941916882369F08F81988552
:103010002A853B85232BF1F19F3F09F063C08F3F49
:1030200009F060C037C086E0FE013796DE011196D8
:1030300001900D928A95E1F76F817885EA85FB858D
:10304000309741F17F3F11F46F3F21F120918601CC
:1030500030E0C9010196877099274091850150E0C1
:103060008417950709F447C069837A83FD83EC834D
:1030700096E0929FD001939FB00D1124A957BE4FA7
:10308000FE01319601900D929A95E1F780938601A9
:103090000E948F1516E08091850190918601891715
:1030A000C1F1189FC001112489579E4F0E94191623
:1030B000882379F1E09185011E9FF0011124E957E1
:1030C000FE4F4081518162817381848195810E948C
:1030D0007F158091850190E00196877099278093F4
:1030E0008501D9CF4F81588569857A858B859C85E7
:1030F0000E947F15CFCF0E94451510928601109235
:103100008501E7EBF1E086E0DF011D928A95E9F7A2
:10311000C1CF2C960FB6F894DEBF0FBECDBFDF91A6
:10312000CF911F91089508950C9493180E949418BC
:1031300060930C0270930D0280930E0290930F0225
:103140000C942B1508950C9496180F931F930091CF
:103150000C0210910D0220910E0230910F02602B93
:10316000712B822B932B1F910F910C9496180F9318
:103170001F9300910C0210910D0220910E023091CC
:103180000F0260237123822393231F910F910C94CC
:1031900096180F931F9300910C0210910D0220912D
:1031A0000E0230910F0260277127822793271F910B
:1031B0000F910C9496180C9455080E94DB1860939C
:1031C00008027093090280930A0290930B020C94F8
:1031D0002B1560E070E0CB010C94DD180F931F936A
:1031E00041E050E060E070E08A019B0104C0000F04
:1031F000111F221F331F8A95D2F7C901B8011F91F1
:103200000F910C94DD180F931F9341E050E060E0A4
:1032100070E004C0440F551F661F771F8A95D2F7D0
:103220008091080290910902A0910A02B0910B02CC
:103230008A019B01082B192B2A2B3B2BC901B801B2
:103240001F910F910C94DD180F931F9341E050E0F4
:1032500060E070E004C0440F551F661F771F8A9519
:10326000D2F74095509560957095809108029091A5
:103270000902A0910A02B0910B028A019B01082366
:1032800019232A233B23C901B8011F910F910C94E4
:10329000DD180F931F9341E050E060E070E004C040
:1032A000440F551F661F771F8A95D2F78091080239
:1032B00090910902A0910A02B0910B028A019B0130
:1032C000082719272A273B27C901B8011F910F9109
:1032D0000C94DD180F931F930091080210910902BE
:1032E00020910A0230910B02602B712B822B932BC1
:1032F0001F910F910C94DD180F931F9300910802FA
:103300001091090220910A0230910B02602371236F
:10331000822393231F910F910C94DD180F931F9319
:10332000009108021091090220910A0230910B02CB
:1033300060277127822793271F910F910C94DD1826
:1033400008952FE0929F800D1124A82FA695A69591
:10335000A695877051E001C0550F8A95EAF785E080
:10336000A89FD001112420E030E070E0F901EA0FBD
:10337000FB1FE354FE4F4081CB01022E02C0969505
:1033800087950A94E2F78170992781958427852390
:10339000842780832F5F3F4F2530310539F708950B
:1033A0002FE0929F800D1124682F66956695669593
:1033B000982F977085E0689FB001112440E050E09D
:1033C00080E0FA01E60FF71FE354FE4F208130E062
:1033D000092E02C0369527950A94E2F7217033270B
:1033E000042E01C0220F0A94EAF7822B4F5F5F4F31
:1033F0004530510531F70895BF92CF92DF92EF9299
:10340000FF920F931F93CF93DF938C01C0900C0218
:10341000D0900D02E0900E02F0900F028091080211
:1034200090910902A0910A02B0910B02C82AD92AF0
:10343000EA2AFB2ACFE1D0E0D701C6010C2E04C056
:10344000B695A795979587950A94D2F780FF07C000
:10345000BC2EB8018C2F0E946609019719F42197A0
:1034600058F7B12C8B2DDF91CF911F910F91FF90C9
:10347000EF90DF90CF90BF900895CF93DF93EC0152
:103480000E94FC19BE010E946609DF91CF91089548
:103490001F93CF93DF93EB0190918401992321F047
:1034A000CB010E943D1A13C0882349F0CB010E9432
:1034B000FC19182F682FCE010E94A11904C0CB015E
:1034C0000E94D019182FBE01812F0E946609DF913A
:1034D000CF911F91089580911002859585958595CE
:1034E000089580911002877008959091100297704E
:1034F00081E009F480E0089580911C020895909184
:103500001C02892B80931C020895809590911C02C7
:10351000892380931C02089510921C0208959091B3
:103520001B02892B80931B020895809590911B02AA
:10353000892380931B02089510921B020895109214
:103540001A02089580911102089508950C94A51A05
:1035500090911102981721F0809311020C94A61AF1
:10356000089580911102882329F01092110280E0C1
:103570000C94A61A0895E0910001F0910101809148
:103580001C028083E0910001F09101019081809103
:103590001B02892B8083E0910001F0910101908151
:1035A00080911A02892B808380911102882381F0F7
:1035B000E0910001F09101019081892B808380913D
:1035C0000001909101010E944B1C81110E94B11ACF
:1035D00080910001909101010C943B0F08950C948F
:1035E000EE1A98E0899F90011124262B2093100257
:1035F0000E940319809110028595859585950C94FC
:10360000EF1A1092100280E00C94EF1A2091100231
:103610008095822380931002982F977079F430E080
:10362000482F082E000C550B2417350739F08595C7
:10363000859585950E9424190C94011B08959093FB
:103640004501809344010895CF92DF92EF92FF925B
:103650006C01EE24FF24C114D104E104F10421F033
:10366000C701B60120E101C020E0C72ED82EE92E07
:10367000FF24C114D104E104F10419F0285FC7014B
:10368000B6016B017C0154E0F694E794D794C7949B
:103690005A95D1F7C114D104E104F10419F02C5F5B
:1036A000C701B6016B017C0142E0F694E794D79420
:1036B000C7944A95D1F7C114D104E104F10419F07B
:1036C0002E5FC701B601DC01CB01B695A795979592
:1036D0008795892B8A2B8B2B09F02F5F822FFF90E8
:1036E000EF90DF90CF9008958295982F9C7C392F92
:1036F00036953695282F237344E0249FC00111246A
:10370000932F982B292F2A7A2695892F8575880F34
:10371000822B08951F93CF93DF931F92CDB7DEB70F
:1037200099830E94741B182F9981892F0E94741B02
:10373000212F30E0322F2227A901482BCA010F90F8
:10374000DF91CF911F91089580E090E00E94952D28
:1037500021E08C3E9E4F09F020E0822F089582E008
:1037600090E00C948D2D83E090E00C948D2DCF9300
:1037700084E090E00E948D2DC82F81E290E00E94AD
:103780008D2D2C2F30E0A901582BCA01CF9108951F
:10379000CF93C92F682F84E090E00E949B2D6C2F5F
:1037A00081E290E0CF910C949B2DAB01BC018FE0A6
:1037B00090E00C94AD2DAB01BC0183E190E00C9442
:1037C000AD2D60E070E0CB010C94DB1B60E070E09D
:1037D000CB010E94D51B0C94E11B6CEE7EEF80E0C8
:1037E00090E00E94B92D60E082E090E00E949B2D65
:1037F00060E083E090E00E949B2D10920C021092FA
:103800000D0210920E0210920F0260E084E090E030
:103810000E949B2D60E081E290E00E949B2D60E081
:1038200085E090E00E949B2D60E086E090E00E94A1
:103830009B2D6FEF87E090E00E949B2D40E050E0D1
:10384000BA0188E090E00E94AD2D60E08DE090E04C
:103850000E949B2D40E050E0BA0188E190E00E9478
:10386000AD2D60E087E190E00E949B2D40E050E0AC
:10387000BA018CE190E00E94AD2D60E080E290E022
:103880000E949B2D0C94E61B0C94ED1B682F8EE080
:1038900090E00C949B2DFC01329697E080E09150D3
:1038A00029F021912223D9F38F5FF9CF08959C014C
:1038B000FC0132969FEF80E04191461789F09F3FCF
:1038C00019F4411101C0982F8F5F8630A9F79F3FEF
:1038D00039F0F901E90FF11D97FDFA95628308951A
:1038E0000895FC01329608962081261301C01082AB
:1038F0003196E817F907C1F708950C94571C0C94FA
:10390000711C029626E0FC0111922A95E9F70895B0
:1039100008950C94881C0E94891C80914502843073
:1039200049F110921E0220E488E190E00FB6F8946D
:10393000A895809360000FBE2093600080E00E94F5
:10394000B6080E94891C83B7817F846083BF83B7D8
:10395000816083BF7894889583B78E7F83BF0FB6CD
:10396000F894A8958091600088618093600010921F
:1039700060000FBE089508950895CF930E94BB1C68
:103980000E947F0C0E94BC1CC0E08C2F0E94E40BA4
:10399000892B29F4CF5FC830C1F780E001C081E0F6
:1039A000CF91089508950C94D21C0E9445150E9451
:1039B0002F0F0E94B6080C94D31C1F920F920FB6C3
:1039C0000F9211248F939F93AF93BF9380911E0208
:1039D000811113C080913B0290913C02A0913D0265
:1039E000B0913E024196A11DB11D80933B02909380
:1039F0003C02A0933D02B0933E02BF91AF919F91D4
:103A00008F910F900FBE0F901F90189582E084BD8C
:103A100093E095BD9AEF97BD80936E0008952FB700
:103A2000F89480913B0290913C02A0913D02B091AC
:103A30003E022FBF08952FB7F89460913B0270911A
:103A40003C0280913D0290913E022FBF0895CF929B
:103A5000DF92EF92FF920F931F932FB7F89440914C
:103A60003B0250913C0260913D0270913E022FBF9B
:103A70006A017B01EE24FF248C0120E030E0C016B7
:103A8000D106E206F30610F4415051099A01281BB1
:103A9000390BC9011F910F91FF90EF90DF90CF90EC
:103AA000089578941F920F920FB60F9211248F935E
:103AB0009F93AF93BF9380913B0290913C02A09162
:103AC0003D02B0913E020196A11DB11D80933B02C3
:103AD00090933C02A0933D02B0933E02BF91AF9100
:103AE0009F918F910F900FBE0F901F90189587E7B1
:103AF00097E790930108809300089AE088E10FB659
:103B0000F894A895809360000FBE90936000FFCF5B
:103B10000E94A41B811102C00E94441C0E94AF1B82
:103B200080931D020E94B71B9093400280933F0236
:103B30000E94B31B682F70E080E090E00C94A31803
:103B40008091220280FF0BC06091050185E0689F93
:103B5000B001112475956795759567952BC081FF08
:103B600009C06091050185E0689FB0011124759539
:103B7000679520C082FF07C06091050185E0689FBE
:103B8000B001112417C0909121029923D1F06091C6
:103B90000401961788F72091050185E0289F900180
:103BA0001124929FA001939F500D112470E0CA012F
:103BB0000E945F2D6038710540F46115710539F080
:103BC00002C065E070E0862F08958FE7089581E0D8
:103BD00008958091220280FF08C06091030170E087
:103BE000759567957595679521C081FF06C06091B1
:103BF000030170E07595679519C082FF04C060915C
:103C0000030170E010C0909121029923C1F06091EE
:103C100002019617A0F780910301899FC00111242A
:103C200070E00E945F2D6038710528F46115710500
:103C300021F0862F08958FE7089581E0089561E0CF
:103C400070E0F4CF803F21F40E94A01D819504C054
:103C5000813F29F40E94A01D809326020895823F8F
:103C600021F40E94A01D819504C0833F29F40E9485
:103C7000A01D809325020895893F19F40E94E91D33
:103C800005C08A3F31F40E94E91D81958093270287
:103C900008958B3F21F40E94E91D819504C08C3F5B
:103CA00029F40E94E91D809328020895843F21F49D
:103CB00080912402816017C0853F21F48091240205
:103CC000826011C0863F21F48091240284600BC081
:103CD000873F21F480912402886005C0883F31F439
:103CE0008091240280618093240208958D3F21F405
:103CF0008091220281600BC08E3F21F480912202CC
:103D0000826005C08F3F29F48091220284608093F5
:103D100022020895803F39F48091260287FF6CC00B
:103D20001092260269C0813F29F48091260218165C
:103D3000BCF362C090912502823F29F497FF5CC0DA
:103D40001092250259C0833F19F41916CCF354C0C0
:103D5000893F41F48091270218160CF04DC0109253
:103D600027024AC08A3F29F48091270287FF44C076
:103D7000F6CF8B3F39F48091280287FF3DC0109227
:103D800028023AC08C3F29F4809128021816BCF30F
:103D900033C0843F21F4809124028E7F17C0853F79
:103DA00021F4809124028D7F11C0863F21F48091FF
:103DB00024028B7F0BC0873F21F480912402877FF0
:103DC00005C0883F31F4809124028F7E80932402C5
:103DD00013C08D3F21F4809122028E7F0BC08E3F55
:103DE00021F4809122028D7F05C08F3F29F48091BC
:103DF00022028B7F809322028091250281110EC0C6
:103E00008091260281110AC080912702811106C08B
:103E100080912802811102C01092210208958091A0
:103E20001D0283FF7EC089E694E00E94A70780916F
:103E300024021F928F9384E694E09F938F930E94B5
:103E4000400882E694E00E94A70780912502282F6F
:103E5000082E000C330B3F938F938FE594E09F93D4
:103E60008F930E9440088DE594E00E94A7078091FF
:103E70002602282F082E000C330B3F938F938AE5E0
:103E800094E09F938F930E94400888E594E00E94FD
:103E9000A70780912702282F082E000C330B3F9391
:103EA0008F9385E594E09F938F930E94400883E56C
:103EB00094E00E94A70780912802282F082E000C6A
:103EC000330B3F938F9380E594E09F938F930E94F1
:103ED00040088DE494E00E94A707809121021F9280
:103EE0008F938AE494E09F938F930E94400888E424
:103EF00094E00E94A707809122021F928F9385E48D
:103F000094E09F938F930E94400882E494E00E9483
:103F1000A7078DB79EB74C960FB6F8949EBF0FBEFD
:103F20008DBF83E292E00E94840F0E940F1D909348
:103F3000200280931F0208951F93CF93DF938091F7
:103F40001F02909120020E94271DAC019091210236
:103F5000992321F02091060130E006C0209107014D
:103F60008AE0289F900111244217530708F47BC070
:103F700080912502C0912602D0912702109128023B
:103F8000811107C0C1116BC0D11169C0111167C087
:103F90006AC09F3F19F09F5F90932102181624F486
:103FA0000E94A01D809325028091250287FF05C0F5
:103FB0000E94A01D8195809325021C1624F40E9466
:103FC000A01D809326028091260287FF05C00E94D3
:103FD000A01D819580932602309125023323E1F0C4
:103FE000209126022223C1F045EB3403C0011124A5
:103FF000892F990F990B009709F481E0809325028E
:1040000035EB2303C0011124892F990F990B0097D9
:1040100009F481E0809326021D1624F40E94E91D14
:10402000809327028091270287FF05C00E94E91D27
:10403000819580932702111624F40E94E91D809334
:1040400028028091280287FF05C00E94E91D819502
:1040500080932802DF91CF911F910C940F1F9F3FF7
:1040600009F099CFA1CFDF91CF911F910895E3E29D
:10407000F2E086E0DF011D928A95E9F710922102B5
:104080001092220208958CE896E00E94A7071F92E2
:1040900081E08F931F9285E08F938EE396E09F934C
:1040A0008F930E9440080F900F900F900F900F90E9
:1040B0000F9008958330E9F128F4813061F0823067
:1040C00009F10895853009F462C008F449C08630CA
:1040D00009F474C0089580910701262F30E0280F5D
:1040E000311D2F3F310524F4680F6093070103C091
:1040F0008FEF80930701809107011F928F9387E7CD
:1041000095E072C080910601262F30E0280F311D06
:104110002F3F310524F4680F6093060103C08FEF31
:1041200080930601809106011F928F9385E695E0AA
:104130005BC080910501262F30E0280F311D2F3FF5
:10414000310524F4680F6093050103C08FEF80935D
:104150000501809105011F928F9382E595E044C08F
:1041600080910401262F30E0280F311D2F3F3105AB
:1041700024F4680F6093040103C08FEF809304015F
:10418000809104011F928F938DE395E02DC0809163
:104190000301262F30E0280F311D2F3F310524F475
:1041A000680F6093030103C08FEF80930301809138
:1041B00003011F928F9384E295E016C08091020163
:1041C000262F30E0280F311D2F3F310524F4680FD2
:1041D0006093020103C08FEF80930201809102017E
:1041E0001F928F9389E095E09F938F930E944008E0
:1041F0000F900F900F900F900895833081F128F465
:10420000813059F08230D1F00895853009F449C0E9
:10421000B8F1863009F456C00895809107016817F7
:1042200020F4861B8093070102C010920701809141
:1042300007011F928F938AEF94E054C0809106018A
:10424000681720F4861B8093060102C010920601B5
:10425000809106011F928F9388EE94E043C0809175
:104260000501681720F4861B8093050102C0109297
:104270000501809105011F928F9385ED94E032C076
:1042800080910401681720F4861B8093040102C00A
:1042900010920401809104011F928F9380EC94E0AE
:1042A00021C080910301681720F4861B80930301CD
:1042B00002C010920301809103011F928F9387EA3D
:1042C00094E010C080910201681720F4861B80934F
:1042D000020102C010920201809102011F928F938D
:1042E0008CE894E09F938F930E9440080F900F906A
:1042F0000F900F900895CF93C82F1F928F9381E94D
:1043000097E09F938F930E94400881E090E0A0E0A7
:10431000B0E0BC01CD0104C0660F771F881F991F54
:10432000CA95D2F70E94A3180F900F900F900F908C
:10433000CF910C944515CF93DF938B3109F4F9C1DC
:1043400008F08FC18B3009F4B2C108F065C1863026
:1043500009F4B0C120F4853009F4BEC16CC28730C5
:1043600009F4CCC1883009F066C28AED9CE00E9455
:10437000A7078BE29CE00E94A7070E94B31B1F9235
:104380008F9388E29CE09F938F930E94400886E27F
:104390009CE00E94A7070E94AF1BC82F83E19CE00E
:1043A0000E94A7071F92CF938EE09CE09F938F936C
:1043B0000E9440088CE09CE00E94A70782E09CE0FD
:1043C0000E94A7078C2F81701F928F938FEF9BE025
:1043D0009F938F930E9440088DEF9BE00E94A70758
:1043E00083EF9BE00E94A707C1FB882780F91F92FB
:1043F0008F9380EF9BE09F938F930E9440088EEEF7
:104400009BE00E94A70782EE9BE00E94A707C2FBE9
:10441000882780F91F928F938FED9BE09F938F9356
:104420000E9440088DED9BE00E94A70784ED9BE071
:104430000E94A707C3FBCC27C0F91F92CF9381ED41
:104440009BE09F938F930E9440088FEC9BE00E941B
:10445000A7070E94B71BEC018BEB9BE00E94A7070C
:10446000DF93CF9386EB9BE09F938F930E9440084E
:1044700084EB9BE00E94A7078BE99BE00E94A707C3
:104480008C2F81701F928F9388E99BE09F938F936D
:104490000E9440088DB79EB780960FB6F8949EBFD5
:1044A0000FBE8DBF86E99BE00E94A7078FE79BE0C8
:1044B0000E94A707C1FB882780F91F928F938CE782
:1044C0009BE09F938F930E9440088AE79BE00E94A5
:1044D000A70788E69BE00E94A7078D2F81701F9297
:1044E0008F9385E69BE09F938F930E94400883E61D
:1044F0009BE00E94A70781E59BE00E94A707D69555
:10450000D1701F92DF938EE49BE09F938F930E9464
:1045100040088CE49BE00E94A7078AE39BE00E948E
:10452000A707C2FB882780F91F928F9387E39BE040
:104530009F938F930E94400885E39BE00E94A7070A
:1045400083E29BE00E94A707C3FB882780F91F92A4
:104550008F9380E29BE09F938F930E9440088EE1AF
:104560009BE00E94A70784E19BE00E94A707C4FB91
:10457000882780F91F928F9381E19BE09F938F930F
:104580000E9440088FE09BE00E94A7078DEF9AE011
:104590000E94A707C5FB882780F91F928F938AEF97
:1045A0009AE09F938F930E94400888EF9AE00E94C0
:1045B000A7078CED9AE00E94A707C6FB882780F921
:1045C0001F928F9389ED9AE09F938F930E944008EA
:1045D0008DB79EB780960FB6F8949EBF0FBE8DBF65
:1045E00087ED9AE00E94A7078FEC9AE00E94A70748
:1045F000C7FBCC27C0F91F92CF938CEC9AE09F9316
:104600008F930E9440088AEC9AE00E94A7070F90BF
:104610000F900F900F9049C0803109F4B4C020F47E
:104620008E3009F49AC007C1863109F4C7C08931B8
:1046300009F001C181EF98E00E94A70788ED98E09A
:104640000E94A70787E998E00E94A70783E698E001
:104650000E94A7078DE298E00E94A7078FEF97E0DE
:104660008FC08A32E1F060F4873209F4E0C028F4A8
:104670008E3108F4E0C08D51DBC0893269F1DBC0B6
:10468000833448F48A3308F0D0C0853309F4CFC0AE
:10469000883369F0D0C0833409F4C9C0CCC089EC38
:1046A0009CE00E94A7070E94441CC1E0C9C087E2A9
:1046B00099E066C080911D02817F8E7F80931D02EC
:1046C00080E099E00E94A70785EC9CE00E94A70784
:1046D00081E080932A02E9CF0E94451589EA9CE097
:1046E0000E94A7079FEF23ED80E391502040804078
:1046F000E1F700C000000E94771DD7CF80911D0216
:10470000C82FC095C170C0FB80F980931D02CC23D7
:1047100029F08DE99CE00E94A70792C080E99CE007
:104720000E94A70780911D02897F877F80931D02C9
:10473000BCCF90911D0291FBCC27C0F981E0C82726
:10474000892FC0FB81F980931D02CC2319F083E8E7
:104750009CE029C085E79CE013C090911D0292FB6C
:10476000CC27C0F981E0C827892FC0FB82F980934C
:104770001D02CC2319F086E69CE015C086E59CE07E
:104780000E94A70792CF90911D0293FBCC27C0F9FE
:1047900081E0C827892FC0FB83F980931D02CC23B9
:1047A00051F08AE49CE00E94A70780911D0281607D
:1047B00080931D0245C08DE39CE0E2CF81EF97E03E
:1047C0000E94A7070E942F0F1F928F9387ED97E0FB
:1047D0009F938F930E944008809112011F928F93A4
:1047E00080EC97E09F938F930E944008809137025E
:1047F0001F928F938DEA97E09F938F930E944008BA
:104800000E941B1D9F938F937F936F9386E997E080
:104810009F938F930E9440088DB79EB742960FB624
:10482000F8949EBF0FBE8DBF40CF895301C080E07A
:104830000E947B213ACF8BE39CE00E94A707C0E057
:104840008C2FDF91CF91089580E0089580E0089546
:104850008E518A3030F4E82FF0E0E65DFE4F808123
:10486000089580E00895CF93C82F80912A02813067
:1048700059F020F0823009F445C039C10E947C1AF9
:10488000823209F036C104C00E947C1A823261F47F
:104890008C2F0E942424811104C08C2F0E949B2104
:1048A0002FC081E090E02CC08C2F0E942624811123
:1048B00026C0C431E1F070F4CB3081F0C031D1F4C6
:1048C0000E94432089E897E00E94A70782E0809336
:1048D0002A0215C0C93259F0C83361F480E099E06A
:1048E0000E94A7078DE897E00E94A70708C01092D2
:1048F0002A0201C187E897E00E94A707FCC081E077
:104900008170FBC0C43228F5CE3108F0C1C0CB3075
:10491000A1F1D0F4C73009F0D0C08EE18093070137
:1049200082E3809306018AE08093050184E180930D
:10493000040188E08093030188E2809302018DE204
:1049400096E00E94A707BCC0C33149F1C431C1F051
:10495000B4C0CB3409F4A6C028F4C93289F0C833F6
:1049600061F0ABC0C13509F49BC0C23509F496C0F3
:10497000CE3409F0A2C06AE09BC00E944320A0C0D0
:1049800080912902882319F01092290299C08AE3A4
:1049900096E00E94A70781E080932A02AEC084E1DE
:1049A00096E00E94A70782E096E00E94A707809108
:1049B00007011F928F938FEF95E09F938F930E9433
:1049C00040088DEF95E00E94A7078BEE95E00E94CE
:1049D000A707809106011F928F9388EE95E09F9321
:1049E0008F930E94400886EE95E00E94A70787ED0E
:1049F00095E00E94A707809105011F928F9384ED97
:104A000095E09F938F930E94400882ED95E00E946D
:104A1000A70781EC95E00E94A707809104011F92EF
:104A20008F938EEB95E09F938F930E9440088CEBC1
:104A300095E00E94A70787EA95E00E94A70780916A
:104A400003011F928F9384EA95E09F938F930E94B6
:104A5000400882EA95E00E94A7078BE895E00E9453
:104A6000A707809102011F928F9388E895E09F939A
:104A70008F930E94400886E895E00E94A7078DB7B3
:104A80009EB748960FB6F8949EBF0FBE8DBF18C054
:104A90008C2F0E9428248093290212C061E003C059
:104AA00061E006C06AE0809129020E945A2008C095
:104AB000809129020E94FD2003C08BE296E013C082
:104AC00080912902882369F01F928F9385E296E0F6
:104AD0009F938F930E9440080F900F900F900F901C
:104AE00004C082E296E00E94A70781E006C010920F
:104AF0002A0280E002C080E003CFCF910895809128
:104B0000360208959FB7F89410922D029FBF90919E
:104B10004502943009F057C09091E9009F703091A0
:104B2000EC00232F217030FD20E8922B23E020930E
:104B3000E9002091EB0020FF43C02091EE0027FF09
:104B40003FC020912B02222321F02091E80025FF75
:104B500037C010922B0226E03091E80035FD15C0D9
:104B600030914502343061F53091EB0035FD28C0BD
:104B7000215021F481E080932B0222C0EFE9FFE075
:104B80003197F1F700C00000E7CF8093F1008091EA
:104B9000E80085FD0AC08091E80080FFFCCF80918D
:104BA000E8008E778093E80006C08FB7F89421E084
:104BB00020932D028FBF9F709093E90080E00895AD
:104BC0009F709093E9008FEF08950F931F93CF93F9
:104BD000DF9300D01F92CDB7DEB78C010E949B28D7
:104BE000823011F0843021F584E089831B830A83AD
:104BF00082E08093E9008FEF9091E800815095FD6D
:104C000006C095ED9A95F1F700008111F5CF8091DE
:104C1000E80085FF0DC040E050E063E070E0CE01A9
:104C200001960E94B8288091E8008E778093E80072
:104C30000F900F900F90DF91CF911F910F910895DA
:104C4000CF93DF9300D01F92CDB7DEB720914502FE
:104C5000243031F523E02983805891099B838A838E
:104C600082E08093E9008FEF9091E800815095FDFC
:104C700006C095ED9A95F1F700008111F5CF80916E
:104C8000E80085FF0DC040E050E063E070E0CE0139
:104C900001960E94B8288091E8008E778093E80002
:104CA0000F900F900F90DF91CF910895CF93DF93E6
:104CB000EC010E949B28823011F08430F9F482E0EC
:104CC0008093E9009FEF8091E800915085FD06C038
:104CD00085ED8A95F1F700009111F5CF8091E800FC
:104CE00085FF0CC040E050E066E070E0CE010E941D
:104CF000B8288091E8008E778093E800DF91CF910B
:104D00000895CF93DF93EC010E949B28823011F02D
:104D1000843039F581E08093E9008FEF9091E800CD
:104D2000815095FD06C095ED9A95F1F7000081112F
:104D3000F5CF8091E80085FF14C040E050E068E0C6
:104D400070E0CE010E94B8288091E8008E778093B1
:104D5000E80088E0FE01AEE2B2E001900D928A9593
:104D6000E1F7DF91CF9108958AE09DE00E94A707C7
:104D700080914402811109C00E944D2A0E94AA2AF2
:104D80008091E20084608093E200089586E09DE0D7
:104D90000E94A70710924402089582E09DE00C94BF
:104DA000A7078EEF9CE00C94A7078AEF9CE00E9477
:104DB000A7070C94D51C20912C022F5F822F62E351
:104DC0000E94532D992319F020932C0208951092DC
:104DD0002C0280912D02882371F18091450284304C
:104DE00041F58091E9008F702091EC00922F917035
:104DF00020FD90E8892B93E09093E9009091EB00DF
:104E000090FF14C09091EE0097FF10C09091E800C1
:104E100095FF03C01092F100F9CF9091E80090FF48
:104E200005C09091E8009E779093E8008F70809382
:104E3000E90010922D02089542E061EC81E00E94A9
:104E4000C72942E261EC82E00E94C72942E261EC9C
:104E500083E00C94C72980914702833009F460C035
:104E600030F4813071F0823009F499C008958A30AD
:104E700009F485C08B3009F46BC0893009F0A7C0F4
:104E800020C080914602813A09F0A1C08091E800DB
:104E9000877F8093E80080914A0290914B02892B92
:104EA00021F468E08EE292E003C060E080E090E0F0
:104EB00070E00E9403298091E8008B778093E800DE
:104EC000089580914602813209F081C080914A02A2
:104ED00090914B02029708F07AC08091E800877F9A
:104EE0008093E8008091E80082FD05C08091450232
:104EF0008111F8CF6CC02091F3008091F20090E016
:104F0000922B029729F48091F1008B7F813021F45C
:104F10008091F100809336028091E8008B7753C036
:104F200080914602813A09F052C080914A029091E4
:104F30004B02892B09F04BC08091E800877F80935A
:104F4000E8008091E80080FFFCCF8091120136C01C
:104F5000809146028132D9F580914A0290914B02AC
:104F6000892BA9F58091E800877F8093E8000E9453
:104F7000FC2980914802809312010C944515809180
:104F80004602813221F58091E800877F8093E80016
:104F90000E94FC29809149028093370208958091F4
:104FA0004602813AA1F48091E800877F8093E8006F
:104FB0008091E80080FFFCCF809137028093F10060
:104FC0008091E8008E778093E8000C94FC29089586
:104FD00084B7877F84BF0FB6F894A895809160004E
:104FE000886180936000109260000FBE90E080E8BE
:104FF0000FB6F89480936100909361000FBE0E94F9
:10500000CC0F0E944D2A0E94AA2A8091E20084605F
:105010008093E20082E895E20E941F1B78940E9430
:10502000382D0E94D40F88E091E00E942A0F89EE6B
:105030009CE00E94A70780914502853089F485EEA7
:105040009CE00E94A7070E948B1C8091430288234A
:1050500091F30E94BD1C882371F30E94A228EBCF1C
:105060000E940410E8CF0C943528292F33272330D1
:105070003105C9F064F42130310581F02230310569
:1050800009F049C08BE590E020E53DE048C02132C1
:10509000310521F12232310571F13DC082E190E00C
:1050A0002BEA3DE03CC099278130910571F02CF44A
:1050B000892B89F5ECE4FDE00DC08230910541F0CB
:1050C000039749F5EEE0FDE005C0E2E3FDE002C034
:1050D000E4E1FDE0849190E09F0121C0633071051F
:1050E000D0F4660F771FFB01E35CFE4F2081318116
:1050F00089E090E014C06330710568F4FB01EE0FA5
:10510000FF1FE95CFE4F20813181FB01EC5CFE4F0B
:10511000808190E004C080E090E020E030E0FA017F
:1051200031832083089580914502843011F081E01D
:10513000089582E0089580913802811102C00C9494
:105140009328089580E189BD82E189BD09B400FEFC
:10515000FDCF8091D8008F7D8093D8008091E000B2
:1051600082608093E0008091E00081FDFCCF089593
:10517000CF92DF92EF92FF920F931F93CF93DF9323
:10518000EC018B016A010E941B2A811133C0C114FA
:10519000D10439F0F60180819181081B190BC80FE9
:1051A000D91FE12CF12C0115110519F18091E800AE
:1051B00085FD16C08091E8008E778093E800C114C9
:1051C000D10449F0F60180819181E80EF91EF18247
:1051D000E08285E00FC00E941B2A882321F30AC0C9
:1051E00089918093F10001501109FFEFEF1AFF0A36
:1051F000DACF80E0DF91CF911F910F91FF90EF9078
:10520000DF90CF90089520914C0230914D022617E7
:10521000370748F06115710539F42091E8002E77C1
:105220002093E80001C0B90140E061157105A9F1C2
:1052300020914502222309F443C0253009F442C0DD
:105240002091E80023FD40C02091E80022FD32C0FB
:105250002091E80020FFE9CF4091F3002091F20077
:1052600030E0342BFC01CF016115710559F0283075
:10527000310540F481918093F100615071092F5FF5
:105280003F4FF1CF41E02830310509F040E0209157
:10529000E8002E772093E800C8CF4111C9CF0AC09B
:1052A00080914502882361F0853061F08091E800AB
:1052B00083FD0AC08091E80082FFF2CF80E008956C
:1052C00082E0089583E0089581E0089520914C02E2
:1052D00030914D022617370748F06115710539F4F2
:1052E0002091E8002E772093E80001C0B901FC016D
:1052F00020E06115710591F180914502882309F440
:1053000040C0853009F43FC08091E80083FD3DC076
:105310008091E80082FD2FC08091E80080FFE9CFF6
:105320002091F3008091F20090E0922B61157105BD
:1053300059F08830910540F424912093F100319682
:10534000615071090196F2CF21E0089709F020E041
:105350008091E8008E778093E800CBCF2111CCCFED
:105360000AC080914502882361F0853061F0809108
:10537000E80083FD0AC08091E80082FFF2CF80E060
:10538000089582E0089583E0089581E00895982FBC
:10539000973058F59093E900981739F07091EC0028
:1053A0002091ED005091F00003C0242F762F50E0A3
:1053B00021FF19C03091EB003E7F3093EB0030911C
:1053C000ED003D7F3093ED003091EB003160309384
:1053D000EB007093EC002093ED005093F0002091CF
:1053E000EE0027FF07C09F5FD3CF8F708093E90047
:1053F00081E0089580E008958091460287FF11C002
:105400008091E80082FD05C0809145028111F8CFAE
:1054100011C08091E8008B770BC0809145028823F2
:1054200049F08091E80080FFF8CF8091E8008E7706
:105430008093E80008952091E4003091E50095E61E
:105440004091EC00842F817040FF22C08091E800E1
:1054500080FD1CC080914502882391F0853091F039
:105460008091EB0085FD10C04091E4005091E50073
:105470004217530729F39A01915011F784E00895D8
:1054800082E0089583E0089581E0089580E0089522
:105490004091E80042FFDECF08950E94BB2A0E949F
:1054A000C32AE0EEF0E0808181608083E8EDF0E0E7
:1054B00080818F77808319BCA7EDB0E08C918E7FBF
:1054C0008C9380818F7E80831092440208950F9385
:1054D0001F93CF93DF930E94BB2A0E94C32AC8ED7B
:1054E000D0E088818F7788838881806888838881ED
:1054F0008F7D888319BC1092450210924102109250
:1055000043021092420200EE10E0F80180818B7F8E
:10551000808388818160888342E060E080E00E942F
:10552000C729E1EEF0E080818E7F8083E2EEF0E03B
:10553000808181608083808188608083F8018081A0
:105540008E7F8083888180618883DF91CF911F91D6
:105550000F910895E8EDF0E080818F7E8083E7ED84
:10556000F0E080818160808384E082BF81E080936D
:1055700044020C94672AE8EDF0E080818E7F8083FE
:105580001092E20008951092DA001092E10008955E
:105590001F920F920FB60F9211242F933F934F93A8
:1055A0005F936F937F938F939F93AF93BF93EF938B
:1055B000FF938091E10082FF0BC08091E20082FFA7
:1055C00007C08091E1008B7F8093E1000E94DB2681
:1055D0008091DA0080FF1FC08091D80080FF1BC03F
:1055E0008091DA008E7F8093DA008091D90080FF6D
:1055F0000DC080E189BD82E189BD09B400FEFDCF07
:1056000081E0809345020E94B42605C019BC109227
:1056100045020E94C6268091E10080FF19C080915A
:10562000E20080FF15C08091E2008E7F8093E2004F
:105630008091E20080618093E2008091D8008062D6
:105640008093D80019BC85E0809345020E94D12642
:105650008091E10084FF30C08091E20084FF2CC083
:1056600080E189BD82E189BD09B400FEFDCF809152
:10567000D8008F7D8093D8008091E1008F7E809349
:10568000E1008091E2008F7E8093E2008091E20051
:1056900081608093E20080914102882311F084E0D0
:1056A00007C08091E30087FD02C081E001C083E074
:1056B000809345020E94D5268091E10083FF29C096
:1056C0008091E20083FF25C08091E100877F809375
:1056D000E10082E080934502109241028091E10056
:1056E0008E7F8093E1008091E2008E7F8093E200C4
:1056F0008091E20080618093E20042E060E080E01F
:105700000E94C7298091F00088608093F0000E9479
:10571000CD26FF91EF91BF91AF919F918F917F9196
:105720006F915F914F913F912F910F900FBE0F900E
:105730001F9018951F920F920FB60F9211242F935E
:105740003F934F935F936F937F938F939F93AF9309
:10575000BF93CF93DF93EF93FF93C091E900CF7096
:105760008091EC00D82FD17080FDD0E81092E90034
:105770008091F000877F8093F00078940E94DE2B68
:105780001092E9008091F00088608093F000CD2BAA
:10579000CF70C093E900FF91EF91DF91CF91BF915E
:1057A000AF919F918F917F916F915F914F913F91B9
:1057B0002F910F900FBE0F901F9018951F93CF93AE
:1057C000DF93CDB7DEB7AA970FB6F894DEBF0FBE52
:1057D000CDBFE6E4F2E088E08E0F9091F100919366
:1057E0008E13FBCF0E942B278091E80083FF28C1F6
:1057F0008091460290914702492F50E04A3051056E
:1058000008F01EC1FA01E059FF4F0C94732D803847
:1058100021F0823809F014C108C0809142029091B1
:105820004302992389F082600FC080914A028F70F1
:10583000873008F005C18093E9008091EB0085FB7B
:10584000882780F91092E9009091E800977F909363
:10585000E8008093F1001092F100D0C0282F2D7F36
:1058600009F0EEC0882319F0823061F0E9C0809120
:105870004802813009F0E4C0933009F080E0809361
:1058800043022EC08091480281112AC080914A02B1
:105890008F702FEF280F263008F0D2C08093E900D8
:1058A0002091EB0020FF1CC0933021F48091EB008D
:1058B000806214C09091EB0090619093EB0021E026
:1058C00030E0A90102C0440F551F8A95E2F74093CA
:1058D000EA001092EA008091EB0088608093EB0070
:1058E0001092E9008091E800877F8093E8000E9491
:1058F000FC29A6C08111A4C0109148021F77809195
:10590000E3008078812B8093E3008091E800877F1B
:105910008093E8000E94FC298091E80080FFFCCF82
:105920008091E30080688093E300111102C082E05F
:1059300001C083E08093450283C08058823008F024
:105940007FC080914802909149028C3D53E09507B9
:1059500079F583E08A838AE289834FB7F894DE0180
:10596000139620E03EE051E2E32FF0E05093570021
:10597000E49120FF03C0E295EF703F5FEF708E2F40
:1059800090E0EA3010F0C79601C0C0968D939D93C9
:105990002F5F243149F74FBF8091E800877F8093C4
:1059A000E8006AE270E0CE0101960E94032915C06A
:1059B00060914A0270914B02AE014F5F5F4F0E94AF
:1059C0003328BC01892BE1F19091E800977F9093F7
:1059D000E80089819A810E9466298091E8008B778E
:1059E0008093E8002DC0803859F58091E800877FCA
:1059F0008093E800809141028093F1008091E8005B
:105A00008E7773CF81111CC0909148029230C0F400
:105A10008091E800877F8093E800909341020E9484
:105A2000FC2980914102811106C08091E30087FD2D
:105A300002C081E001C084E0809345020E941C27DF
:105A40008091E80083FF0AC08091E800877F8093FF
:105A5000E8008091EB0080628093EB00AA960FB67D
:105A6000F894DEBF0FBECDBFDF91CF911F91089597
:105A7000CF93809145028823A1F0C091E900CF70B7
:105A80009091EC00892F817090FD80E8C82B1092D6
:105A9000E9008091E80083FD0E94DE2BCF70C09367
:105AA000E900CF910895991B79E004C0991F9617DA
:105AB00008F0961B881F7A95C9F78095089597FB83
:105AC000072E16F4009407D077FD09D00E94792D97
:105AD00007FC05D03EF4909581959F4F08957095F1
